:020000040000FA
:060000000A128A11122809
:10000800FE00030E83120313A5000408A6000A08C5
:10001800A7007F08A8000A128A15732F0A128A11EE
:1000280015288317B230FD000A30FE00BF30FF00EC
:10003800903084000A128A15FA210A128A11831351
:10004800C030FD000A30FE007D30FF00A030840083
:100058000A128A15FA210A128A11C0308400DC308B
:100068000A128A15B9210A128A1183010A128A1101
:100078003D28413083160313DF004C30DE009930F1
:10008800DD009A30DC000130850005148801061473
:1000980081018B170B170B160A128A15C1210A1238
:1000A8008A1110308312031390008F018E010B30D8
:1000B80083120313DD002630DC005D30DB00DB0B30
:1000C8006328DC0B6328DD0B63280A128A158E254A
:1000D8000A128A110A128A15E4210A128A11831255
:1000E80003132A0883160313D20083120313290863
:1000F80083160313D100E401E5010F3083160313BF
:10010800510583120313DB000030831603135205D5
:1001180083120313DC00831603136408831203138A
:10012800DD005D07C03E84005B0883138000840AFD
:100138005C08800083160313640883120313DB0032
:100148005B07C03E8400000883160313E000840A9E
:100158000008E10004300310D20CD10CFF3E031D4F
:10016800AF28600883120313DB005B07903E84000E
:1001780083170008DC00831603136408C63E840056
:10018800831203135C088313800001308316031362
:10019800E4070318E50A0030E5076508803AFF0020
:1001A80080307F02031DDA2803306402031CDD2837
:1001B800DE2881280A128A15B3240A128A118312AA
:1001C8000313360883160313E30083120313350859
:1001D80083160313E200620883120313A90083162F
:1001E8000313630883120313AA00AB01AC010030A8
:1001F8000A128A11DD260A128A11831203132C08A7
:10020800BE002B08BD002A08BC002908BB008316C5
:1002180003135F0883120313BA00831603135E08DF
:1002280083120313B900831603135D0883120313A3
:10023800B800831603135C0883120313B7000A126D
:100248008A110A250A128A11831203133A08D40064
:100258003908D3003808D2003708D1000A128A15A5
:10026800FB260A128A1183120313520883160313FA
:10027800E70083120313510883160313E600503076
:1002880066066704031D49294A294B298B160A1259
:100298008A15D7210A128A1183120313AD01AD0AF8
:1002A80001300A128A1542250A128A113A3083123D
:1002B8000313B2008030B3000A128A1527240A12E9
:1002C8008A11E83083120313A9000330AA008316A9
:1002D8000313670883120313AC008316031366081D
:1002E80083120313AB000A128A156D240A128A11AD
:1002F800831203132908303E0A128A159C260A1213
:100308008A11E83083120313B1000330B200831658
:100318000313670883120313B400831603136608D4
:1003280083120313B3000A128A155F230A128A1173
:1003380083120313320883160313E700831203138F
:10034800310883160313E600643083120313A900EF
:100358000030AA0083160313670883120313AC0046
:1003680083160313660883120313AB000A128A1557
:100378006D240A128A11831203132908303E0A12C7
:100388008A159C260A128A11643083120313B1005D
:100398000030B20083160313670883120313B400F6
:1003A80083160313660883120313B3000A128A150F
:1003B8005F230A128A118312031332088316031368
:1003C800E70083120313310883160313E6000A308B
:1003D80083120313A9000030AA00831603136708C9
:1003E80083120313AC0083160313660883120313E6
:1003F800AB000A128A156D240A128A11831203139C
:100408002908303E0A128A159C260A128A110A30D7
:1004180083120313B1000030B20083160313670878
:1004280083120313B400831603136608831203139D
:10043800B3000A128A155F230A128A118312031362
:10044800320883160313E700831203133108831657
:100458000313E6006608303E0A128A159C260A1223
:100468008A1183120313AD01AD0A02300A128A15EC
:1004780042250A128A11243083120313B2008030F5
:10048800B3000A128A1527240A128A110A30831225
:100498000313B2000030B300E830A9000330AA000B
:1004A800831603134E0883120313AC008316031339
:1004B8004D0883120313AB000A128A1197270A12F8
:1004C8008A11831203132A08B5002908B4000A12F6
:1004D8008A1541260A128A118312031332088316D9
:1004E8000313D6000A3083120313B2000030B3009E
:1004F8006430A9000030AA00831603134E08831243
:100508000313AC00831603134D0883120313AB00C7
:100518000A128A1197270A128A11831203132A08CA
:10052800B5002908B4000A128A1541260A128A1150
:1005380083120313320883160313D5000A3083127B
:100548000313B2000030B3000A30A9000030AA003B
:10055800831603134E0883120313AC008316031388
:100568004D0883120313AB000A128A1197270A1247
:100578008A11831203132A08B5002908B4000A1245
:100588008A1541260A128A11831203133208831628
:100598000313D4000A3083120313B2000030B300EF
:1005A800831603134E0883120313B500831603132F
:1005B8004D0883120313B4000A128A1541260A1241
:1005C8008A1183120313320883160313D3005608C3
:1005D800303E0A128A159C260A128A1183160313C2
:1005E8005508303E0A128A159C260A128A1183166B
:1005F80003135408303E0A128A159C260A128A11DF
:10060800831603135308303E0A128A159C260A12D1
:100618008A110B3083120313DD002630DC005D30B5
:10062800DB00DB0B152BDC0B152BDD0B152B013041
:1006380083160313CF070318D00A0030D0075008D9
:1006480083120313AA00831603134F08831203139C
:10065800A90083160313630883120313AC008316DF
:100668000313620883120313AB000A128A15E122EE
:100678000A128A11831203132A0883160313CE0061
:1006880083120313290883160313CD000A128A154F
:100698003F220A128A110A128A1533230A128A1172
:1006A800031C572B582B6E28D9300A128A15F924A7
:1006B8000A128A110318612B622B8A2BD8300A126E
:1006C8008A15F9240A128A1103186B2B6C2B8A2BB2
:1006D800DB300A128A15F9240A128A110318752BBD
:1006E800762B8A2BDA300A128A15F9240A128A1113
:1006F80003187F2B802B8A2BD7300A128A15F924EE
:100708000A128A11031C892B8A2B9B2B0A128A1521
:10071800D7210A128A11423083120313B2008030A3
:10072800B3000A128A1527240A128A116E28831622
:1007380003135908580783120313DB00DC01DC0D8F
:10074800831603135B08831203135B07DD00003075
:10075800031801305C07DE00831603135A0883125E
:1007680003135D07DF000030031801305E07E00067
:10077800FF305F05E10000306005E20083160313D7
:10078800570883120313E300E40162086406031D9B
:10079800CF2B61086306031DD22BD32B062D83169E
:1007A8000313590883120313DB00DC015B0883166B
:1007B8000313C900831203135C0883160313CA00CA
:1007C800580883120313DB00DC018316031349085E
:1007D80083120313DE00DD015B085D048316031337
:1007E800C900831203135C085E0483160313CA004E
:1007F8005B0883120313DB00DC015B088316031319
:10080800CB00831203135C0883160313CC005A0829
:1008180083120313DB00DC01831603134B088312D6
:100828000313DE00DD015B085D0483160313CB00B0
:10083800831203135C085E0483160313CC0015307F
:1008480083120313DD004B30DC00BD30DB00DB0B13
:100858002B2CDC0B2B2CDD0B2B2C322C8030831615
:1008680003134C02013003194B02031C3C2C3D2C92
:10087800602C2D30B600FF304B05CB007F304C0587
:10088800CC000A128A15D7210A128A11831203137F
:10089800AD01AD0A01300A128A1542250A128A11E1
:1008A800B03083120313B2000030B3000A128A1565
:1008B80027240A128A11622C2030B6000A308312CB
:1008C8000313B1000030B2006430A9000030AA0060
:1008D800831603134C0883120313AC008316031307
:1008E8004B0883120313AB000A128A156D240A12EF
:1008F8008A11831203132A08B4002908B3000A12C4
:100908008A155F230A128A11831203133108303EB5
:1009180083160313B7000A3083120313B1000030A3
:10092800B2000A30A9000030AA00831603134C084D
:1009380083120313AC00831603134B0883120313AB
:10094800AB000A128A156D240A128A118312031346
:100958002A08B4002908B3000A128A155F230A126C
:100968008A11831203133108303E83160313B8002B
:100978000A3083120313B1000030B2008316031348
:100988004C0883120313B400831603134B08831215
:100998000313B3000A128A155F230A128A118312FD
:1009A80003133108303E83160313BA00DF30BB004F
:1009B8000A128A15D7210A128A1183120313AD016C
:1009C800AD0A01300A128A1542250A128A11B0307E
:1009D80083120313B2000030B3000A128A152724C9
:1009E8000A128A11153083120313DD004B30DC0024
:1009F800BD30DB00DB0BFE2CDC0BFE2CDD0BFE2CF4
:100A0800052D6E286E280A128A11122883120313E4
:100A18003E088039C8003E08BF003F07CF00BD1F11
:100A2800162D172D182D4F144F0803191C2D1D2D89
:100A38002D2D4F0A031D212D222D2A2D0030BE00F9
:100A48000030BD000030BC000030BB00BD17BE0147
:100A5800352D0030BE000030BD000030BC00003035
:100A6800BB003A088039BF003F08C8063A08BF00F3
:100A78003F07D000B91F412D422D432D5014500877
:100A88000319472D482D582D500A031D4C2D4D2D67
:100A9800552D0030BA000030B9000030B8000030E1
:100AA800B700B917BA01602D0030BA000030B9009C
:100AB8000030B8000030B7003A0839043804370469
:100AC800031D672D682D812D0030BE000030BD004C
:100AD8000030BC000030BB008030BD047F30BE0455
:100AE8004808BF003F08BE043E08BA003D08B900E8
:100AF8003C08B8003B08B700DC2E4F08031D852DC5
:100B0800862D8F2D0030BA000030B9000030B800B3
:100B18000030B700DC2E4F08BF00C0014008C200FB
:100B280050083F02C100031CC20341087F3EC900B0
:100B380042080318013E003ECA003E08C7003D08AF
:100B4800C6003C08C5003B08C4000030BE000030A9
:100B5800BD000030BC000030BB000030CE000030CB
:100B6800CD000030CC000030CB00D001052E50085D
:100B78000319BF2DC02DE02D0130BF000310C40D97
:100B8800C50DC60DC70DBF0BC22D0130BF00031028
:100B9800BB0DBC0DBD0DBE0DBF0BCB2DCE1FD52D76
:100BA800D62DD72D3B140130BF000310CB0DCC0D33
:100BB800CD0DCE0DBF0BD92D3A084702031DEE2DE2
:100BC80039084602031DEE2D38084502031DEE2D97
:100BD80037084402031CF12DF22D012E4E17370859
:100BE800C4023808031C380FC5023908031C390F22
:100BF800C6023A08031C3A0FC7020130BF003F087B
:100C0800D0071A305002031C0A2E0B2EBB2D4708A2
:100C18004604450444040319122E132E322E4B1495
:100C2800322E0130BF000310BB0DBC0DBD0DBE0D33
:100C3800BF0B172ECE1F212E222E232E3B14013040
:100C4800BF000310CB0DCC0DCD0DCE0DBF0B252E47
:100C5800FF30C9070318CA0AFF30CA07BD1F352E5F
:100C6800362E152ED001CE1F3A2E3B2E572EFF3092
:100C78004B05BF00FF304C05C000FF304D05C100DB
:100C88007F304E05C2004208410440043F04031966
:100C98004E2E4F2E522ED001D00A572E3B1C552EC9
:100CA800562E572E4F2E500803195B2E5C2E8D2E74
:100CB8000130BB07003003180130BC0700300318AF
:100CC8000130BD07003003180130BE073E1C6D2EF1
:100CD8006E2E8D2E3B08BF003C08C0003D08C100A9
:100CE8003E08C2000130C300420DC20CC10CC00C4A
:100CF800BF0CC30B782E4208BE004108BD00400857
:100D0800BC003F08BB000130C9070318CA0A0030FD
:100D1800CA074A08803AFF0080307F02031D962EDA
:100D2800FF304902031C992E9A2EA82EFF308312F9
:100D38000313C9000030CA000030BE000030BD00F7
:100D48000030BC000030BB00831203134A08803A0D
:100D5800FF0080307F02031DB32E013049020318C3
:100D6800B62EB72EC42E83120313C901CA01003050
:100D7800BE000030BD000030BC000030BB00C80120
:100D8800831203134908CF004F1CCB2ECC2ECE2E36
:100D9800BD17D22E7F30BF003F08BD054F08BF00EA
:100DA80003103F0CBE004808BF003F08BE04782D62
:100DB800080083120313B10031080319E42EE52E4D
:100DC800F92EAC1FE82EE92EF92E2909B3002A09BD
:100DD800B4002B09B5002C09B600B30A0319B40AEC
:100DE8000319B50A0319B60A012F2C08B6002B08F7
:100DF800B5002A08B4002908B3002C082B042A04DB
:100E08002904031D082F092F122F0030AC000030D1
:100E1800AB000030AA000030A900962F9630B2002F
:100E2800222F0130AD002D08B20701300310B60C97
:100E3800B50CB40CB30CFF3E031D1A2FFE3036055B
:100E4800031D272F282F152F442F0130AD002D0803
:100E5800B2070130B307003003180130B40700307F
:100E680003180130B507003003180130B607013008
:100E78000310B60CB50CB40CB30CFF3E031D3C2F8D
:100E8800FF303605031D492F4A2F292F562F0130D1
:100E9800B2020130AD000310B30DB40DB50DB60D9F
:100EA800AD0B4F2FB51B592F5A2F602F023032022E
:100EB80003185F2F602F4B2F3218632F642F6C2F6E
:100EC800FF30B305FF30B4057F30B505FF30B605F8
:100ED8000310B20C3208AD00AE01AF01B0011830FA
:100EE8000310AD0DAE0DAF0DB00DFF3E031D742FF9
:100EF8002D08B3042E08B4042F08B5043008B6042E
:100F080031080319882F892F8E2FAC1F8C2F8D2F16
:100F18008E2FB6173608AC003508AB003408AA0087
:100F28003308A900080083120313AF01AA1F9D2FDD
:100F38009E2FA52FA909AA09A90A0319AA0AAF0170
:100F4800AF0AAC1FA82FA92FB22FAB09AC09AB0A67
:100F58000319AC0A0130AD002D08AF06B001B1018C
:100F680029082A040319B92FBA2FF12FAE01AE0AA6
:100F7800C82F01300310A90DAA0DFF3E031DBE2F77
:100F88000130AD002D08AE07AA1FCB2FCC2FBD2FE7
:100F980001300310B00DB10DFF3E031DCD2F2A08FF
:100FA8002C02031DD92F29082B02031CDC2FDD2F4F
:100FB800E42F2908AB022A08031CAC03AC02301446
:100FC80001300310AA0CA90CFF3E031DE52F0130C8
:100FD800AE02031DF02FF12FCC2F2F080319F52F88
:100FE800F62FFB2FB009B109B00A0319B10A31086D
:100FF800AA003008A9000800FF1B0A2883137F18DD
:1010080083170008840A0319FF0A080008308A00B9
:101018000408840A82070034203420344D346134B3
:10102800783420347334703465346534643420344F
:10103800523465346134633468346534643400345C
:10104800203420344434723469347634653420349E
:1010580053346134663465346C3479340034443440
:1010680069347334743461346E34633465343A34B7
:1010780020340034203420344534783474342E3409
:101088002034493453345234003453347034653482
:10109800653464343A34203400344534723472345C
:0810A8006F347234203400346F
:1013720064008001840A0406031900340406BA29B1
:101382004130831203139F008030831603139F00A2
:10139200080000300A128A1509220A128A15013041
:1013A2000A128A1509220A128A15080000300A1246
:1013B2008A1523220A128A1501300A128A1523225B
:1013C2000A128A1508004130831203139F001F1569
:1013D2001F1DEC29ED29E9291E08AA008316031313
:1013E2001E0883120313A90008007E088A007F08E2
:1013F20082000A128A15F6210A128A158000840ACE
:1014020004087D0603190034FF0A0319FE0AFA29AB
:10141200F30083120313081173080A128A159D221E
:101422000A128A158312031388150B30F2006230F8
:10143200F100F10B1A2AF20B1A2A0000831203138D
:101442008811080083120313AC0008112C080A1239
:101452008A155D220A128A158312031388150B302E
:1014620083120313AB006130AA00AA0B362AAB0B1E
:10147200362A3B2A831203138811080083160313AA
:101482008610831203138610413083120313AA00BD
:10149200ED30A900A90B4B2AAA0B4B2A502A831222
:1014A20003138614133083120313A900A90B572ABE
:1014B200831603138614080083120313A900291C40
:1014C200632A642A662A0816672A0812A91C6A2A4D
:1014D2006B2A6D2A88166E2A8812291D712A722A91
:1014E200742A0817752A0813A91D782A792A7B2AD3
:1014F20088177C2A88130800523448342034203458
:1015020020343D342034303430342E3430342034DE
:101512002534203420340034543465346D3470342E
:1015220020343D342034303430342E3430342034BE
:101532004334203420340034F000701CA12AA22A43
:10154200A62A831203130816A92A83120313081268
:10155200F01CAC2AAD2AAF2A8816B02A8812701D58
:10156200B32AB42AB62A0817B72A0813F01DBA2AD2
:10157200BB2ABD2A8817BE2A88130800003400340B
:1015820001340034023400340334003404340034AF
:10159200053400340634003407340034083400348F
:1015A200093400340A3400340B3400340C3400346F
:1015B2000D3400340E3400340F340034003400345F
:1015C20083120313AD01AE01291CE82AE92AEF2A8E
:1015D2002B08AD070318AE0A2C08AE070130031022
:1015E200AB0DAC0DFF3E031DF02A01300310AA0C17
:1015F200A90CFF3E031DF72A29082A04031D022B0A
:10160200032BE52A2E08AA002D08A90008000130A4
:1016120083120313B3000030B400282B3008AA0051
:101622002F08A9003408AC003308AB000A128A154F
:10163200E1220A128A15831203132A08B400290828
:10164200B300FF30B1070318B20AFF30B207310806
:101652003204031D2D2B2E2B0F2B3408B000330820
:10166200AF000800831203138F018E011014861835
:101672003B2B3C2B422B64300E02031C412B422B92
:10168200382B64300E02031C472B482B4A2B0310C5
:101692005E2B8F018E01861C4F2B502B562B6430F4
:1016A2000E02031C552B562B4C2B64300E02031CCE
:1016B2005B2B5C2B5D2B482B031408008312031356
:1016C200310832040319662B672B962BB601B60A32
:1016D200752B01300310B10DB20DFF3E031D6B2BB4
:1016E2000130B5003508B607B21F782B792B6A2B6B
:1016F20032083402031D7F2B31083302031C822B74
:10170200832B892B3108B3023208031CB403B402C1
:1017120001300310B20CB10CFF3E031D8A2B0130C5
:10172200B602031D952B962B792B3408B200330891
:10173200B100080083120313A001A101C42B2008E9
:101742007907FC007A08FB000318FB0AA01FAA2BEA
:10175200FB037B08FD007D0883120313FF007C0856
:1017620084000A128A1500200A128A150A128A15A2
:10177200E6250A128A15013083120313A007031803
:10178200A10A0030A10720087907FC007A08FB00B3
:101792000318FB0AA01FCE2BFB037B08FD007D086C
:1017A20083120313FF007C0884000A128A150020AA
:1017B2000A128A15003A031DDF2BE02BA02B08002A
:1017C200F6007603031DE62BE72B042C74087F3EFC
:1017D200F9007908F50004300310F50CFF3E031DF3
:1017E200ED2B7508F70079080F39F80077080A120F
:1017F2008A1509220A128A1578080A128A150922FC
:101802000A128A15262C02307606031D092C0A2C90
:10181200262C7408BF3EF9007908F5000430031045
:10182200F50CFF3E031D102C7508F70079080F39DF
:10183200F80077080A128A1509220A128A1578080E
:101842000A128A1509220A128A1508008312031342
:10185200B701B801502C37083207B5003308B4007D
:101862000318B40AB71F362CB403831203133408C7
:10187200B6003608FF00350884000A128A150020D7
:101882000A128A150A128A159C260A128A15013032
:1018920083120313B7070318B80A0030B8073708D2
:1018A2003207B5003308B4000318B40AB71F5A2C24
:1018B200B403831203133408B6003608FF00350858
:1018C20084000A128A1500200A128A15003A031DA2
:1018D2006B2C6C2C2C2C080083120313AE01AF016D
:1018E20029082A040319762C772CAE2CB001B00AF1
:1018F200852C01300310A90DAA0DFF3E031D7B2C80
:101902000130AD002D08B007AA1F882C892C7A2C33
:1019120001300310AE0DAF0DFF3E031D8A2C2A08C5
:101922002C02031D962C29082B02031C992C9A2C9D
:10193200A12C2908AB022A08031CAC03AC022E140A
:1019420001300310AA0CA90CFF3E031DA22C01308A
:10195200B002031DAD2CAE2C892C2F08AA002E0834
:10196200A900080083120313BB01BC010230BD00B1
:101972000030BE003E08B2003D08B1001030AF009A
:101982000030B0000A128A1508230A128A1583123F
:1019920003133008BA002F08B9003D08C63E840080
:1019A20083130008B700B8013708A9003808AA0055
:1019B2003A08AC003908AB000A128A15E1220A1271
:1019C2008A15831203132908BB070318BC0A2A08C5
:1019D200BC07FF30BD070318BE0AFF30BE07BE1F9B
:1019E200F32CF42CBB2C3C08B6003B08B5000800D5
:1019F20083120313AC002C08840083138001AB0113
:101A02008F018E010C2D65300E02031C092D0A2D4B
:101A12000C2D0314412D861C0F2D102D042D8F012A
:101A22008E011A2D65300E02031C182D192D1A2D48
:101A32000A2D86181D2D1E2D132D33300E02031C68
:101A4200232D242D362D0130A9002B08073C013E01
:101A52002C2D0310A90DFF3E031D2A2D2908AA00D3
:101A62002C0884002A08831380040130A900290865
:101A7200AB0708302B02031C3F2D402D012D031014
:101A8200080083120313AF002F03031D492D4A2DB3
:101A9200692D2D087F3EB2003208AE0004300310DB
:101AA200AE0CFF3E031D502D2E08B00032080F3938
:101AB200B10030080A128A1523220A128A158312EB
:101AC200031331080A128A1523220A128A158D2D50
:101AD20002302F06031D6E2D6F2D8D2D2D08BF3E5A
:101AE200B2003208AE0004300310AE0CFF3E031DFC
:101AF200752D2E08B00032080F39B10030080A12D5
:101B02008A1523220A128A158312031331080A1234
:101B12008A1523220A128A15080000300A128A1531
:101B22005D220A128A1503300A128A1523220A122A
:101B32008A150D3083120313AE00FB30AD00AD0BDE
:101B4200A02DAE0BA02D03300A128A1523220A12F1
:101B52008A151D3083120313AE009030AD00AD0B19
:101B6200B02DAE0BB02D000003300A128A152322CD
:101B72000A128A1502300A128A1523220A128A15BB
:101B820002300A128A1523220A128A1508300A1212
:101B92008A1523220A128A1500300A128A15232274
:101BA2000A128A150C300A128A1523220A128A1581
:101BB20000300A128A1523220A128A1506300A12E6
:101BC2008A1523220A128A150800F40074080F39B4
:101BD200F2007408F039F300831203130815730836
:101BE200F10004300310F10CFF3E031DF32D7108C8
:101BF2000A128A159D220A128A1583120313881566
:101C02003330F5008230F6000000FF30F50703188C
:101C1200F60AFF30F6077608803AFF0080307F022E
:101C2200031D152E01307502031C182E192E052EC8
:101C320083120313881172080A128A159D220A124E
:101C42008A158312031388153330F7008230F800A7
:101C52000000FF30F7070318F80AFF30F80778088A
:101C6200803AFF0080307F02031D392E0130770257
:101C7200031C3C2E3D2E292E8312031388110800CB
:101C820083120313B801B51F472E482E4F2EB409F5
:101C9200B509B40A0319B50AB801B80AB31F522E1E
:101CA200532E582EB209B309B20A0319B30A3208E5
:101CB200330403195D2E5E2E8D2EB701B70A6C2EEA
:101CC20001300310B20DB30DFF3E031D622E013031
:101CD200B6003608B707B31F6F2E702E612E330879
:101CE2003502031D762E32083402031C792E7A2E19
:101CF200802E3208B4023308031CB503B50201304A
:101D02000310B30CB20CFF3E031D812E0130B7024B
:101D1200031D8C2E8D2E702E38080319912E922EB3
:101D2200972EB409B509B40A0319B50A3508B300E8
:101D32003408B200080083120313AD002D080F39D6
:101D4200AB002D08F039AC0008152C08AA000430AD
:101D52000310AA0CFF3E031DA92E2A080A128A1597
:101D62005D220A128A158312031388153330AE00DE
:101D72008230AF000000FF3083120313AE07031856
:101D8200AF0AFF30AF072F08803AFF0080307F0292
:101D9200031DCD2E01302E02031CD02ED12EBB2EC0
:101DA2008312031388112B080A128A155D220A1264
:101DB2008A158312031388153330B0008230B100C4
:101DC2000000FF3083120313B0070318B10AFF307B
:101DD200B1073108803AFF0080307F02031DF32EE5
:101DE20001303002031CF62EF72EE12E831203136C
:101DF20088110800031083120313530D540DDA00E7
:101E02005A08031D052F062F0F2F0030D400003073
:101E1200D3000030D2000030D100722F5108D5001B
:101E22005208D6005308D7005408D8001F300310B8
:101E3200D80CD70CD60CD50CFF3E031D182F550815
:101E4200D900D317FF30D105FF30D205FF30D305BB
:101E52000030D4059630DA02DA1F302F312F4B2FA3
:101E62005A08803A973E0318372F382F392F062FFA
:101E720001300310D40CD30CD20CD10CFF3E031D45
:101E82003A2F0130D5005508DA07031D492F4A2F92
:101E9200392F622F20305A02031C502F512F5D2FF1
:101EA200062F0130D5000310D10DD20DD30DD40D64
:101EB200D50B542F0130DA025A08031D612F622F0D
:101EC200522F59080319662F672F722FD109D20991
:101ED200D309D409D10A0319D20A0319D30A03195F
:101EE200D40A08008B1C762F772FB32F0A128A157B
:101EF200CA210A128A15F401F40A01300A128A155B
:101F0200E1230A128A152F30F9008030FA000A12F2
:101F12008A159B230A128A15F401F40A02300A1266
:101F22008A15E1230A128A151530F9008030FA0069
:101F32000A128A159B230A128A158B1015308312F6
:101F42000313A4004B30A300BD30A200A20BA72FA5
:101F5200A30BA72FA40BA72FAE2F0A128A15CA21F3
:101F62000A128A158B1EB62FB72FF32F0A128A1563
:101F7200CA210A128A15F401F40A01300A128A15DA
:101F8200E1230A128A150130F9008030FA000A12A0
:101F92008A159B230A128A15F401F40A02300A12E6
:101FA2008A15E1230A128A151530F9008030FA00E9
:101FB2000A128A159B230A128A158B121530831274
:101FC2000313A4004B30A300BD30A200A20BE72FE5
:101FD200A30BE72FA40BE72FEE2F0A128A15CA21B3
:101FE2000A128A15831203132808FF0027088A00A1
:0E1FF20026088400250E8300FE0E7E0E0900D8
:02400E00723FFF
:00000001FF
